{
  "contractName": "SimpleStorage",
  "abi": [
    {
      "constant": true,
      "inputs": [],
      "name": "owner",
      "outputs": [
        {
          "name": "",
          "type": "address"
        }
      ],
      "payable": false,
      "stateMutability": "view",
      "type": "function",
      "signature": "0x8da5cb5b"
    },
    {
      "inputs": [],
      "payable": false,
      "stateMutability": "nonpayable",
      "type": "constructor",
      "signature": "constructor"
    },
    {
      "constant": false,
      "inputs": [
        {
          "name": "document",
          "type": "string"
        }
      ],
      "name": "notarize",
      "outputs": [],
      "payable": false,
      "stateMutability": "nonpayable",
      "type": "function",
      "signature": "0x7183616c"
    },
    {
      "constant": true,
      "inputs": [
        {
          "name": "document",
          "type": "string"
        }
      ],
      "name": "checkDocument",
      "outputs": [
        {
          "name": "",
          "type": "bool"
        }
      ],
      "payable": false,
      "stateMutability": "view",
      "type": "function",
      "signature": "0x53fb9233"
    }
  ],
  "bytecode": "0x608060405234801561001057600080fd5b50336000806101000a81548173ffffffffffffffffffffffffffffffffffffffff021916908373ffffffffffffffffffffffffffffffffffffffff160217905550610499806100606000396000f3fe608060405260043610610057576000357c0100000000000000000000000000000000000000000000000000000000900463ffffffff16806353fb92331461005c5780637183616c1461013c5780638da5cb5b14610204575b600080fd5b34801561006857600080fd5b506101226004803603602081101561007f57600080fd5b810190808035906020019064010000000081111561009c57600080fd5b8201836020820111156100ae57600080fd5b803590602001918460018302840111640100000000831117156100d057600080fd5b91908080601f016020809104026020016040519081016040528093929190818152602001838380828437600081840152601f19601f82011690508083019250505050505050919291929050505061025b565b604051808215151515815260200191505060405180910390f35b34801561014857600080fd5b506102026004803603602081101561015f57600080fd5b810190808035906020019064010000000081111561017c57600080fd5b82018360208201111561018e57600080fd5b803590602001918460018302840111640100000000831117156101b057600080fd5b91908080601f016020809104026020016040519081016040528093929190818152602001838380828437600081840152601f19601f82011690508083019250505050505050919291929050505061034f565b005b34801561021057600080fd5b50610219610448565b604051808273ffffffffffffffffffffffffffffffffffffffff1673ffffffffffffffffffffffffffffffffffffffff16815260200191505060405180910390f35b60006060826040516020018082805190602001908083835b6020831015156102985780518252602082019150602081019050602083039250610273565b6001836020036101000a03801982511681845116808217855250505050505090500191505060405160208183030381529060405290506002816040518082805190602001908083835b60208310151561030657805182526020820191506020810190506020830392506102e1565b6001836020036101000a038019825116818451168082178552505050505050905001915050908152602001604051809103902060009054906101000a900460ff16915050919050565b6060816040516020018082805190602001908083835b60208310151561038a5780518252602082019150602081019050602083039250610365565b6001836020036101000a038019825116818451168082178552505050505050905001915050604051602081830303815290604052905060016002826040518082805190602001908083835b6020831015156103fa57805182526020820191506020810190506020830392506103d5565b6001836020036101000a038019825116818451168082178552505050505050905001915050908152602001604051809103902060006101000a81548160ff0219169083151502179055505050565b6000809054906101000a900473ffffffffffffffffffffffffffffffffffffffff168156fea165627a7a723058202d7f1f47718687bcd061d8c85de7edfeec4a1399824fc0833b8b23b61c688ffc0029",
  "source": "pragma solidity ^0.5.0;\n\ncontract SimpleStorage {\n  address public owner;\n  string ipfsHash;\n  mapping(bytes => bool) private docProofs;\n\n constructor() public {\n    owner = msg.sender;\n  }\n\n   // First Notarize Document\n  function notarize(string memory document) public {\n    bytes memory proof = abi.encodePacked(document);\n    docProofs[proof] = true;\n  }\n\n  // Now check for Document if it exists and notarized\n  function checkDocument(string memory document) public view returns (bool) {\n    bytes memory proof = abi.encodePacked(document);\n    return docProofs[proof];\n  }\n}\n",
  "sourcePath": "C:/Users/manju/DevBC/ipfs_file_upload/contracts/SimpleStorage.sol",
  "compiler": {
    "name": "solc",
    "version": "0.5.0+commit.1d4f565a.Emscripten.clang"
  },
  "schemaVersion": "3.0.5",
  "updatedAt": "2019-05-05T12:05:13.444Z",
  "devdoc": {
    "methods": {}
  },
  "userdoc": {
    "methods": {}
  }
}